{
  "contractName": "Airlines",
  "abi": [
    {
      "constant": true,
      "inputs": [
        {
          "name": "",
          "type": "address"
        }
      ],
      "name": "escrow",
      "outputs": [
        {
          "name": "",
          "type": "uint256"
        }
      ],
      "payable": false,
      "stateMutability": "view",
      "type": "function"
    },
    {
      "inputs": [],
      "payable": true,
      "stateMutability": "payable",
      "type": "constructor"
    },
    {
      "constant": false,
      "inputs": [],
      "name": "register",
      "outputs": [],
      "payable": true,
      "stateMutability": "payable",
      "type": "function"
    },
    {
      "constant": false,
      "inputs": [
        {
          "name": "AirlineZ",
          "type": "address"
        }
      ],
      "name": "unregister",
      "outputs": [],
      "payable": false,
      "stateMutability": "nonpayable",
      "type": "function"
    },
    {
      "constant": false,
      "inputs": [
        {
          "name": "reqID",
          "type": "uint256"
        },
        {
          "name": "flightID",
          "type": "uint256"
        },
        {
          "name": "numSeats",
          "type": "uint256"
        },
        {
          "name": "custID",
          "type": "uint256"
        },
        {
          "name": "toAirline",
          "type": "address"
        }
      ],
      "name": "ASKrequest",
      "outputs": [],
      "payable": false,
      "stateMutability": "nonpayable",
      "type": "function"
    },
    {
      "constant": false,
      "inputs": [
        {
          "name": "reqID",
          "type": "uint256"
        },
        {
          "name": "success",
          "type": "bool"
        },
        {
          "name": "fromAirline",
          "type": "address"
        }
      ],
      "name": "ASKresponse",
      "outputs": [],
      "payable": false,
      "stateMutability": "nonpayable",
      "type": "function"
    },
    {
      "constant": false,
      "inputs": [
        {
          "name": "reqID",
          "type": "uint256"
        },
        {
          "name": "toAirline",
          "type": "address"
        },
        {
          "name": "numSeats",
          "type": "uint256"
        }
      ],
      "name": "settlePayment",
      "outputs": [],
      "payable": true,
      "stateMutability": "payable",
      "type": "function"
    },
    {
      "constant": false,
      "inputs": [],
      "name": "replenishEscrow",
      "outputs": [],
      "payable": true,
      "stateMutability": "payable",
      "type": "function"
    }
  ],
  "bytecode": "0x6080604052336000806101000a81548173ffffffffffffffffffffffffffffffffffffffff021916908373ffffffffffffffffffffffffffffffffffffffff1602179055506001600260003373ffffffffffffffffffffffffffffffffffffffff1673ffffffffffffffffffffffffffffffffffffffff1681526020019081526020016000208190555034600160003373ffffffffffffffffffffffffffffffffffffffff1673ffffffffffffffffffffffffffffffffffffffff16815260200190815260200160002081905550610a6e806100dc6000396000f3fe60806040526004361061008d576000357c0100000000000000000000000000000000000000000000000000000000900480632ec2c2461161006b5780632ec2c2461461017c57806357d3c7c3146101cd5780638bed703014610232578063da419f861461023c5761008d565b80631aa3a00814610092578063266599ef1461009c5780632b9eed7514610115575b600080fd5b61009a610294565b005b3480156100a857600080fd5b50610113600480360360a08110156100bf57600080fd5b8101908080359060200190929190803590602001909291908035906020019092919080359060200190929190803573ffffffffffffffffffffffffffffffffffffffff169060200190929190505050610325565b005b34801561012157600080fd5b5061017a6004803603606081101561013857600080fd5b8101908080359060200190929190803515159060200190929190803573ffffffffffffffffffffffffffffffffffffffff1690602001909291905050506104b7565b005b34801561018857600080fd5b506101cb6004803603602081101561019f57600080fd5b81019080803573ffffffffffffffffffffffffffffffffffffffff16906020019092919050505061067a565b005b3480156101d957600080fd5b5061021c600480360360208110156101f057600080fd5b81019080803573ffffffffffffffffffffffffffffffffffffffff1690602001909291905050506107e8565b6040518082815260200191505060405180910390f35b61023a610800565b005b6102926004803603606081101561025257600080fd5b8101908080359060200190929190803573ffffffffffffffffffffffffffffffffffffffff16906020019092919080359060200190929190505050610887565b005b60003390506001600260008373ffffffffffffffffffffffffffffffffffffffff1673ffffffffffffffffffffffffffffffffffffffff1681526020019081526020016000208190555034600160008373ffffffffffffffffffffffffffffffffffffffff1673ffffffffffffffffffffffffffffffffffffffff1681526020019081526020016000208190555050565b6001600260003373ffffffffffffffffffffffffffffffffffffffff1673ffffffffffffffffffffffffffffffffffffffff1681526020019081526020016000205414151561037357600080fd5b6001600260008373ffffffffffffffffffffffffffffffffffffffff1673ffffffffffffffffffffffffffffffffffffffff168152602001908152602001600020541415156103c157600080fd5b60a0604051908101604052808681526020018581526020018481526020018381526020018273ffffffffffffffffffffffffffffffffffffffff16815250600360003373ffffffffffffffffffffffffffffffffffffffff1673ffffffffffffffffffffffffffffffffffffffff1681526020019081526020016000206000820151816000015560208201518160010155604082015181600201556060820151816003015560808201518160040160006101000a81548173ffffffffffffffffffffffffffffffffffffffff021916908373ffffffffffffffffffffffffffffffffffffffff1602179055509050505050505050565b6001600260003373ffffffffffffffffffffffffffffffffffffffff1673ffffffffffffffffffffffffffffffffffffffff1681526020019081526020016000205414151561050557600080fd5b6001600260008373ffffffffffffffffffffffffffffffffffffffff1673ffffffffffffffffffffffffffffffffffffffff1681526020019081526020016000205414151561055357600080fd5b81600460003373ffffffffffffffffffffffffffffffffffffffff1673ffffffffffffffffffffffffffffffffffffffff16815260200190815260200160002060010160006101000a81548160ff02191690831515021790555080600460003373ffffffffffffffffffffffffffffffffffffffff1673ffffffffffffffffffffffffffffffffffffffff16815260200190815260200160002060010160016101000a81548173ffffffffffffffffffffffffffffffffffffffff021916908373ffffffffffffffffffffffffffffffffffffffff16021790555082600460003373ffffffffffffffffffffffffffffffffffffffff1673ffffffffffffffffffffffffffffffffffffffff16815260200190815260200160002060000181905550505050565b6000809054906101000a900473ffffffffffffffffffffffffffffffffffffffff1673ffffffffffffffffffffffffffffffffffffffff163373ffffffffffffffffffffffffffffffffffffffff161415156106d557600080fd5b6000600260008373ffffffffffffffffffffffffffffffffffffffff1673ffffffffffffffffffffffffffffffffffffffff168152602001908152602001600020819055508073ffffffffffffffffffffffffffffffffffffffff166108fc600160008473ffffffffffffffffffffffffffffffffffffffff1673ffffffffffffffffffffffffffffffffffffffff168152602001908152602001600020549081150290604051600060405180830381858888f1935050505015801561079f573d6000803e3d6000fd5b506000600160008373ffffffffffffffffffffffffffffffffffffffff1673ffffffffffffffffffffffffffffffffffffffff1681526020019081526020016000208190555050565b60016020528060005260406000206000915090505481565b34600160003373ffffffffffffffffffffffffffffffffffffffff1673ffffffffffffffffffffffffffffffffffffffff1681526020019081526020016000205401600160003373ffffffffffffffffffffffffffffffffffffffff1673ffffffffffffffffffffffffffffffffffffffff16815260200190815260200160002081905550565b6001600260003373ffffffffffffffffffffffffffffffffffffffff1673ffffffffffffffffffffffffffffffffffffffff168152602001908152602001600020541415156108d557600080fd5b6000339050670de0b6b3a76400008202600160008573ffffffffffffffffffffffffffffffffffffffff1673ffffffffffffffffffffffffffffffffffffffff1681526020019081526020016000205401600160008573ffffffffffffffffffffffffffffffffffffffff1673ffffffffffffffffffffffffffffffffffffffff16815260200190815260200160002081905550670de0b6b3a76400008202600160008373ffffffffffffffffffffffffffffffffffffffff1673ffffffffffffffffffffffffffffffffffffffff1681526020019081526020016000205403600160008373ffffffffffffffffffffffffffffffffffffffff1673ffffffffffffffffffffffffffffffffffffffff1681526020019081526020016000208190555083600560008373ffffffffffffffffffffffffffffffffffffffff1673ffffffffffffffffffffffffffffffffffffffff168152602001908152602001600020819055505050505056fea165627a7a7230582003e127057b99dd3358c60dd3f0366e25adab8c9d8333518a84e2bd60e212736b0029",
  "source": "pragma solidity >=0.4.22 <=0.6.0;\r\n    \r\n    contract Airlines  {\r\n   \r\n    address chairperson;\r\n    \r\n    struct reqStruc{\r\n        uint reqID;\r\n        uint fID;\r\n        uint numSeats;\r\n        uint passengerID;\r\n        address toAirline;\r\n    } \r\n\r\n   struct respStruc{\r\n        uint reqID;\r\n        bool status;\r\n        address fromAirline;\r\n    } \r\n    \r\n    mapping (address=>uint) public escrow;\r\n    mapping (address=>uint) membership; \r\n    mapping (address=>reqStruc) reqs;\r\n    mapping (address=>respStruc) reps;\r\n    mapping (address=>uint) settledReqID;\r\n    \r\n    //modifier or rules\r\n    modifier onlyChairperson {\r\n        require(msg.sender==chairperson);\r\n        _;\r\n    }\r\n    modifier onlyMember {\r\n        require(membership[msg.sender]==1);\r\n        _;\r\n    }\r\n    \r\n    // constructor function\r\n    constructor () public payable  {\r\n      \r\n        chairperson=msg.sender;\r\n        membership[msg.sender]=1; // automatically registered\r\n        escrow[msg.sender] = msg.value;\r\n\r\n        \r\n    }\r\n    \r\n    function register ( ) public payable{\r\n        \r\n        address AirlineA =msg.sender;\r\n        membership[AirlineA]=1;\r\n        escrow[AirlineA] = msg.value;\r\n\r\n        \r\n    }\r\n        \r\n   function unregister (address payable AirlineZ) onlyChairperson public {\r\n        membership[AirlineZ]=0;\r\n        //return escrow to leaving airline: other consitions may be verified\r\n        AirlineZ.transfer(escrow[AirlineZ]);\r\n        escrow[AirlineZ] = 0;\r\n        \r\n    }\r\n    \r\n    \r\n    function ASKrequest (uint reqID, uint flightID, uint numSeats, uint custID, address toAirline) onlyMember public{\r\n        /*if(membership[toAirline]!=1){\r\n            revert();}  */\r\n        require(membership[toAirline] == 1);\r\n        reqs[msg.sender] = reqStruc(reqID, flightID, numSeats, custID, toAirline);\r\n      \r\n    }\r\n    \r\n    function  ASKresponse (uint reqID, bool success, address fromAirline) onlyMember public{\r\n      \r\n        if(membership[fromAirline]!=1){\r\n            revert();\r\n        }\r\n        \r\n        reps[msg.sender].status=success;\r\n        reps[msg.sender].fromAirline = fromAirline;\r\n        reps[msg.sender].reqID = reqID;\r\n       \r\n       \r\n    }\r\n    \r\n    function settlePayment  (uint reqID, address payable toAirline, uint numSeats) onlyMember payable public{\r\n        //before calling this, it will update ASK view table\r\n        address fromAirline = msg.sender;\r\n       \r\n        //this is the consortium account transfer you want to do\r\n         //assume cost of 1 ETH for each seat \r\n        // computations are in Wei \r\n        \r\n        escrow[toAirline] = escrow[toAirline] + numSeats*1000000000000000000;\r\n        escrow[fromAirline] = escrow[fromAirline] - numSeats*1000000000000000000;\r\n       \r\n        settledReqID[fromAirline] = reqID;\r\n       \r\n    }\r\n    \r\n    function replenishEscrow() payable public\r\n    {\r\n        escrow[msg.sender] = escrow[msg.sender] + msg.value;\r\n    }\r\n}",
  "sourcePath": "/Users/gimtaemin/solidity_study/ASKV2-Dapp/ASK-contract/contracts/ASK.sol",
  "compiler": {
    "name": "solc",
    "version": "0.5.2+commit.1df8f40c.Emscripten.clang"
  },
  "schemaVersion": "3.4.3",
  "updatedAt": "2022-04-27T08:57:41.850Z",
  "networkType": "ethereum",
  "devdoc": {
    "methods": {}
  },
  "userdoc": {
    "methods": {}
  }
}